:100000000C942D000C94B4000C94B4000C94B40027
:100010000C94B4000C94B4000C94B4000C94B40090
:100020000C94B4000C94B4000C94B4000C94B40080
:100030000C94B4000C94B4000C94B4000C94B40070
:100040000C9457000C94B4000C94B4000C94B400BD
:100050000C94B40000600062800011241FBECFE544
:10006000D8E0DEBFCDBFE4E5F0E040E017C0B591D9
:10007000A59135912591059107FD0CC0959185912C
:10008000EF01F92FE82F05900D92A217B307D9F7CA
:10009000FE0104C01D92A217B307E1F7E935F4078A
:0E00A00031F70E9495000C945500F894FFCFA4
:1000AE001F920F920FB60F9211242F933F934F93DF
:1000BE005F936F937F938F939F93AF93BF93EF93C2
:1000CE00FF9380E690E00E94AA000E94B600FF9186
:1000DE00EF91BF91AF919F918F917F916F915F91B2
:1000EE004F913F912F910F900FBE0F901F9018952B
:1000FE000F931F9390E4699FB0011124862B87B94B
:10010E0080E2089F800111244068042B220F220FE9
:0C011E00220F022B06B91F910F910895CB
:10012A0000E021E047E060E080E00E947F007894F0
:10013A000E94B6008FEF84BB81BBE0E6F0E08081CD
:0A014A0085BB8091610082BBFACFF3
:1001540024B130E0FC013183208345B1342B318359
:040164002083089557
:040168000C940000F3
:04016C00369A089522
:00000001FF
